{
	"SmartContract.sol": {
		"SimpleWallet": {
			"abi": [
				{
					"inputs": [],
					"stateMutability": "nonpayable",
					"type": "constructor"
				},
				{
					"anonymous": false,
					"inputs": [
						{
							"indexed": true,
							"internalType": "address",
							"name": "_from",
							"type": "address"
						},
						{
							"indexed": false,
							"internalType": "uint256",
							"name": "_amount",
							"type": "uint256"
						}
					],
					"name": "Deposit",
					"type": "event"
				},
				{
					"anonymous": false,
					"inputs": [
						{
							"indexed": true,
							"internalType": "address",
							"name": "_to",
							"type": "address"
						},
						{
							"indexed": false,
							"internalType": "uint256",
							"name": "_amount",
							"type": "uint256"
						}
					],
					"name": "Withdrawal",
					"type": "event"
				},
				{
					"inputs": [
						{
							"internalType": "address",
							"name": "",
							"type": "address"
						}
					],
					"name": "balances",
					"outputs": [
						{
							"internalType": "uint256",
							"name": "",
							"type": "uint256"
						}
					],
					"stateMutability": "view",
					"type": "function"
				},
				{
					"inputs": [],
					"name": "checkBalance",
					"outputs": [
						{
							"internalType": "uint256",
							"name": "",
							"type": "uint256"
						}
					],
					"stateMutability": "view",
					"type": "function"
				},
				{
					"inputs": [],
					"name": "contractBalance",
					"outputs": [
						{
							"internalType": "uint256",
							"name": "",
							"type": "uint256"
						}
					],
					"stateMutability": "view",
					"type": "function"
				},
				{
					"inputs": [],
					"name": "deposit",
					"outputs": [],
					"stateMutability": "payable",
					"type": "function"
				},
				{
					"inputs": [],
					"name": "owner",
					"outputs": [
						{
							"internalType": "address",
							"name": "",
							"type": "address"
						}
					],
					"stateMutability": "view",
					"type": "function"
				},
				{
					"inputs": [
						{
							"internalType": "uint256",
							"name": "_amount",
							"type": "uint256"
						}
					],
					"name": "withdraw",
					"outputs": [],
					"stateMutability": "nonpayable",
					"type": "function"
				}
			],
			"devdoc": {
				"kind": "dev",
				"methods": {},
				"version": 1
			},
			"evm": {
				"assembly": "    /* \"SmartContract.sol\":60:1353  contract SimpleWallet {... */\n  mstore(0x40, 0x80)\n    /* \"SmartContract.sol\":347:398  constructor() {... */\n  callvalue\n  dup1\n  iszero\n  tag_1\n  jumpi\n  0x00\n  dup1\n  revert\ntag_1:\n  pop\n    /* \"SmartContract.sol\":372:377  owner */\n  0x00\n    /* \"SmartContract.sol\":372:390  owner = msg.sender */\n  dup1\n  sload\n  not(sub(shl(0xa0, 0x01), 0x01))\n  and\n    /* \"SmartContract.sol\":380:390  msg.sender */\n  caller\n    /* \"SmartContract.sol\":372:390  owner = msg.sender */\n  or\n  swap1\n  sstore\n    /* \"SmartContract.sol\":60:1353  contract SimpleWallet {... */\n  dataSize(sub_0)\n  dup1\n  dataOffset(sub_0)\n  0x00\n  codecopy\n  0x00\n  return\nstop\n\nsub_0: assembly {\n        /* \"SmartContract.sol\":60:1353  contract SimpleWallet {... */\n      mstore(0x40, 0x80)\n      jumpi(tag_1, lt(calldatasize, 0x04))\n      shr(0xe0, calldataload(0x00))\n      dup1\n      0x27e235e3\n      eq\n      tag_2\n      jumpi\n      dup1\n      0x2e1a7d4d\n      eq\n      tag_3\n      jumpi\n      dup1\n      0x8b7afe2e\n      eq\n      tag_4\n      jumpi\n      dup1\n      0x8da5cb5b\n      eq\n      tag_5\n      jumpi\n      dup1\n      0xc71daccb\n      eq\n      tag_6\n      jumpi\n      dup1\n      0xd0e30db0\n      eq\n      tag_7\n      jumpi\n    tag_1:\n      0x00\n      dup1\n      revert\n        /* \"SmartContract.sol\":116:156  mapping(address => uint) public balances */\n    tag_2:\n      callvalue\n      dup1\n      iszero\n      tag_8\n      jumpi\n      0x00\n      dup1\n      revert\n    tag_8:\n      pop\n      tag_9\n      tag_10\n      calldatasize\n      0x04\n      tag_11\n      jump\t// in\n    tag_10:\n      mstore(0x20, 0x01)\n      0x00\n      swap1\n      dup2\n      mstore\n      0x40\n      swap1\n      keccak256\n      sload\n      dup2\n      jump\n    tag_9:\n      mload(0x40)\n        /* \"#utility.yul\":451:476   */\n      swap1\n      dup2\n      mstore\n        /* \"#utility.yul\":439:441   */\n      0x20\n        /* \"#utility.yul\":424:442   */\n      add\n        /* \"SmartContract.sol\":116:156  mapping(address => uint) public balances */\n    tag_13:\n      mload(0x40)\n      dup1\n      swap2\n      sub\n      swap1\n      return\n        /* \"SmartContract.sol\":745:1079  function withdraw(uint _amount) public {... */\n    tag_3:\n      callvalue\n      dup1\n      iszero\n      tag_15\n      jumpi\n      0x00\n      dup1\n      revert\n    tag_15:\n      pop\n      tag_16\n      tag_17\n      calldatasize\n      0x04\n      tag_18\n      jump\t// in\n    tag_17:\n      tag_19\n      jump\t// in\n    tag_16:\n      stop\n        /* \"SmartContract.sol\":1239:1350  function contractBalance() public view onlyOwner returns (uint) {... */\n    tag_4:\n      callvalue\n      dup1\n      iszero\n      tag_20\n      jumpi\n      0x00\n      dup1\n      revert\n    tag_20:\n      pop\n      tag_9\n      tag_22\n      jump\t// in\n        /* \"SmartContract.sol\":89:109  address public owner */\n    tag_5:\n      callvalue\n      dup1\n      iszero\n      tag_24\n      jumpi\n      0x00\n      dup1\n      revert\n    tag_24:\n      pop\n      sload(0x00)\n      tag_25\n      swap1\n      sub(shl(0xa0, 0x01), 0x01)\n      and\n      dup2\n      jump\n    tag_25:\n      mload(0x40)\n      sub(shl(0xa0, 0x01), 0x01)\n        /* \"#utility.yul\":836:868   */\n      swap1\n      swap2\n      and\n        /* \"#utility.yul\":818:869   */\n      dup2\n      mstore\n        /* \"#utility.yul\":806:808   */\n      0x20\n        /* \"#utility.yul\":791:809   */\n      add\n        /* \"SmartContract.sol\":89:109  address public owner */\n      tag_13\n        /* \"#utility.yul\":672:875   */\n      jump\n        /* \"SmartContract.sol\":1087:1184  function checkBalance() public view returns (uint) {... */\n    tag_6:\n      callvalue\n      dup1\n      iszero\n      tag_29\n      jumpi\n      0x00\n      dup1\n      revert\n    tag_29:\n      pop\n        /* \"SmartContract.sol\":1165:1175  msg.sender */\n      caller\n        /* \"SmartContract.sol\":1132:1136  uint */\n      0x00\n        /* \"SmartContract.sol\":1156:1176  balances[msg.sender] */\n      swap1\n      dup2\n      mstore\n        /* \"SmartContract.sol\":1156:1164  balances */\n      0x01\n        /* \"SmartContract.sol\":1156:1176  balances[msg.sender] */\n      0x20\n      mstore\n      0x40\n      swap1\n      keccak256\n      sload\n        /* \"SmartContract.sol\":1087:1184  function checkBalance() public view returns (uint) {... */\n      jump(tag_9)\n        /* \"SmartContract.sol\":531:737  function deposit() public payable {... */\n    tag_7:\n      tag_16\n      tag_34\n      jump\t// in\n        /* \"SmartContract.sol\":745:1079  function withdraw(uint _amount) public {... */\n    tag_19:\n        /* \"SmartContract.sol\":813:814  0 */\n      0x00\n        /* \"SmartContract.sol\":803:810  _amount */\n      dup2\n        /* \"SmartContract.sol\":803:814  _amount > 0 */\n      gt\n        /* \"SmartContract.sol\":795:859  require(_amount > 0, \"Withdrawal amount must be greater than 0\") */\n      tag_36\n      jumpi\n      mload(0x40)\n      shl(0xe5, 0x461bcd)\n      dup2\n      mstore\n        /* \"#utility.yul\":1082:1084   */\n      0x20\n        /* \"SmartContract.sol\":795:859  require(_amount > 0, \"Withdrawal amount must be greater than 0\") */\n      0x04\n      dup3\n      add\n        /* \"#utility.yul\":1064:1085   */\n      mstore\n        /* \"#utility.yul\":1121:1123   */\n      0x28\n        /* \"#utility.yul\":1101:1119   */\n      0x24\n      dup3\n      add\n        /* \"#utility.yul\":1094:1124   */\n      mstore\n        /* \"#utility.yul\":1160:1194   */\n      0x5769746864726177616c20616d6f756e74206d75737420626520677265617465\n        /* \"#utility.yul\":1140:1158   */\n      0x44\n      dup3\n      add\n        /* \"#utility.yul\":1133:1195   */\n      mstore\n      shl(0xc4, 0x072207468616e203)\n        /* \"#utility.yul\":1211:1229   */\n      0x64\n      dup3\n      add\n        /* \"#utility.yul\":1204:1242   */\n      mstore\n        /* \"#utility.yul\":1259:1278   */\n      0x84\n      add\n        /* \"SmartContract.sol\":795:859  require(_amount > 0, \"Withdrawal amount must be greater than 0\") */\n    tag_37:\n      mload(0x40)\n      dup1\n      swap2\n      sub\n      swap1\n      revert\n    tag_36:\n        /* \"SmartContract.sol\":887:897  msg.sender */\n      caller\n        /* \"SmartContract.sol\":878:898  balances[msg.sender] */\n      0x00\n      swap1\n      dup2\n      mstore\n        /* \"SmartContract.sol\":878:886  balances */\n      0x01\n        /* \"SmartContract.sol\":878:898  balances[msg.sender] */\n      0x20\n      mstore\n      0x40\n      swap1\n      keccak256\n      sload\n        /* \"SmartContract.sol\":878:909  balances[msg.sender] >= _amount */\n      dup2\n      gt\n      iszero\n        /* \"SmartContract.sol\":870:934  require(balances[msg.sender] >= _amount, \"Insufficient balance\") */\n      tag_39\n      jumpi\n      mload(0x40)\n      shl(0xe5, 0x461bcd)\n      dup2\n      mstore\n        /* \"#utility.yul\":1491:1493   */\n      0x20\n        /* \"SmartContract.sol\":870:934  require(balances[msg.sender] >= _amount, \"Insufficient balance\") */\n      0x04\n      dup3\n      add\n        /* \"#utility.yul\":1473:1494   */\n      mstore\n        /* \"#utility.yul\":1530:1532   */\n      0x14\n        /* \"#utility.yul\":1510:1528   */\n      0x24\n      dup3\n      add\n        /* \"#utility.yul\":1503:1533   */\n      mstore\n      shl(0x60, 0x496e73756666696369656e742062616c616e6365)\n        /* \"#utility.yul\":1549:1567   */\n      0x44\n      dup3\n      add\n        /* \"#utility.yul\":1542:1592   */\n      mstore\n        /* \"#utility.yul\":1609:1627   */\n      0x64\n      add\n        /* \"SmartContract.sol\":870:934  require(balances[msg.sender] >= _amount, \"Insufficient balance\") */\n      tag_37\n        /* \"#utility.yul\":1289:1633   */\n      jump\n        /* \"SmartContract.sol\":870:934  require(balances[msg.sender] >= _amount, \"Insufficient balance\") */\n    tag_39:\n        /* \"SmartContract.sol\":954:964  msg.sender */\n      caller\n        /* \"SmartContract.sol\":945:965  balances[msg.sender] */\n      0x00\n      swap1\n      dup2\n      mstore\n        /* \"SmartContract.sol\":945:953  balances */\n      0x01\n        /* \"SmartContract.sol\":945:965  balances[msg.sender] */\n      0x20\n      mstore\n      0x40\n      dup2\n      keccak256\n        /* \"SmartContract.sol\":945:976  balances[msg.sender] -= _amount */\n      dup1\n      sload\n        /* \"SmartContract.sol\":969:976  _amount */\n      dup4\n      swap3\n        /* \"SmartContract.sol\":945:965  balances[msg.sender] */\n      swap1\n        /* \"SmartContract.sol\":945:976  balances[msg.sender] -= _amount */\n      tag_42\n      swap1\n        /* \"SmartContract.sol\":969:976  _amount */\n      dup5\n      swap1\n        /* \"SmartContract.sol\":945:976  balances[msg.sender] -= _amount */\n      tag_43\n      jump\t// in\n    tag_42:\n      swap1\n      swap2\n      sstore\n      pop\n      pop\n        /* \"SmartContract.sol\":987:1024  payable(msg.sender).transfer(_amount) */\n      mload(0x40)\n        /* \"SmartContract.sol\":995:1005  msg.sender */\n      caller\n      swap1\n        /* \"SmartContract.sol\":987:1024  payable(msg.sender).transfer(_amount) */\n      dup3\n      iszero\n      0x08fc\n      mul\n      swap1\n        /* \"SmartContract.sol\":1016:1023  _amount */\n      dup4\n      swap1\n        /* \"SmartContract.sol\":987:1024  payable(msg.sender).transfer(_amount) */\n      0x00\n      dup2\n      dup2\n      dup2\n        /* \"SmartContract.sol\":1016:1023  _amount */\n      dup6\n        /* \"SmartContract.sol\":995:1005  msg.sender */\n      dup9\n        /* \"SmartContract.sol\":987:1024  payable(msg.sender).transfer(_amount) */\n      dup9\n      call\n      swap4\n      pop\n      pop\n      pop\n      pop\n      iszero\n      dup1\n      iszero\n      tag_45\n      jumpi\n      returndatasize\n      0x00\n      dup1\n      returndatacopy\n      revert(0x00, returndatasize)\n    tag_45:\n      pop\n        /* \"SmartContract.sol\":1040:1071  Withdrawal(msg.sender, _amount) */\n      mload(0x40)\n        /* \"#utility.yul\":451:476   */\n      dup2\n      dup2\n      mstore\n        /* \"SmartContract.sol\":1051:1061  msg.sender */\n      caller\n      swap1\n        /* \"SmartContract.sol\":1040:1071  Withdrawal(msg.sender, _amount) */\n      0x7fcf532c15f0a6db0bd6d0e038bea71d30d808c7d98cb3bf7268a95bf5081b65\n      swap1\n        /* \"#utility.yul\":439:441   */\n      0x20\n        /* \"#utility.yul\":424:442   */\n      add\n        /* \"SmartContract.sol\":1040:1071  Withdrawal(msg.sender, _amount) */\n      mload(0x40)\n      dup1\n      swap2\n      sub\n      swap1\n      log2\n        /* \"SmartContract.sol\":745:1079  function withdraw(uint _amount) public {... */\n      pop\n      jump\t// out\n        /* \"SmartContract.sol\":1239:1350  function contractBalance() public view onlyOwner returns (uint) {... */\n    tag_22:\n        /* \"SmartContract.sol\":1297:1301  uint */\n      0x00\n        /* \"SmartContract.sol\":460:465  owner */\n      dup1\n      sload\n      sub(shl(0xa0, 0x01), 0x01)\n      and\n        /* \"SmartContract.sol\":446:456  msg.sender */\n      caller\n        /* \"SmartContract.sol\":446:465  msg.sender == owner */\n      eq\n        /* \"SmartContract.sol\":438:503  require(msg.sender == owner, \"Only owner can call this function\") */\n      tag_48\n      jumpi\n      mload(0x40)\n      shl(0xe5, 0x461bcd)\n      dup2\n      mstore\n        /* \"#utility.yul\":2105:2107   */\n      0x20\n        /* \"SmartContract.sol\":438:503  require(msg.sender == owner, \"Only owner can call this function\") */\n      0x04\n      dup3\n      add\n        /* \"#utility.yul\":2087:2108   */\n      mstore\n        /* \"#utility.yul\":2144:2146   */\n      0x21\n        /* \"#utility.yul\":2124:2142   */\n      0x24\n      dup3\n      add\n        /* \"#utility.yul\":2117:2147   */\n      mstore\n        /* \"#utility.yul\":2183:2217   */\n      0x4f6e6c79206f776e65722063616e2063616c6c20746869732066756e6374696f\n        /* \"#utility.yul\":2163:2181   */\n      0x44\n      dup3\n      add\n        /* \"#utility.yul\":2156:2218   */\n      mstore\n      shl(0xf9, 0x37)\n        /* \"#utility.yul\":2234:2252   */\n      0x64\n      dup3\n      add\n        /* \"#utility.yul\":2227:2258   */\n      mstore\n        /* \"#utility.yul\":2275:2294   */\n      0x84\n      add\n        /* \"SmartContract.sol\":438:503  require(msg.sender == owner, \"Only owner can call this function\") */\n      tag_37\n        /* \"#utility.yul\":1903:2300   */\n      jump\n        /* \"SmartContract.sol\":438:503  require(msg.sender == owner, \"Only owner can call this function\") */\n    tag_48:\n      pop\n        /* \"SmartContract.sol\":1321:1342  address(this).balance */\n      selfbalance\n        /* \"SmartContract.sol\":1239:1350  function contractBalance() public view onlyOwner returns (uint) {... */\n      swap1\n      jump\t// out\n        /* \"SmartContract.sol\":531:737  function deposit() public payable {... */\n    tag_34:\n        /* \"SmartContract.sol\":596:597  0 */\n      0x00\n        /* \"SmartContract.sol\":584:593  msg.value */\n      callvalue\n        /* \"SmartContract.sol\":584:597  msg.value > 0 */\n      gt\n        /* \"SmartContract.sol\":576:639  require(msg.value > 0, \"Deposit amount must be greater than 0\") */\n      tag_54\n      jumpi\n      mload(0x40)\n      shl(0xe5, 0x461bcd)\n      dup2\n      mstore\n        /* \"#utility.yul\":2507:2509   */\n      0x20\n        /* \"SmartContract.sol\":576:639  require(msg.value > 0, \"Deposit amount must be greater than 0\") */\n      0x04\n      dup3\n      add\n        /* \"#utility.yul\":2489:2510   */\n      mstore\n        /* \"#utility.yul\":2546:2548   */\n      0x25\n        /* \"#utility.yul\":2526:2544   */\n      0x24\n      dup3\n      add\n        /* \"#utility.yul\":2519:2549   */\n      mstore\n        /* \"#utility.yul\":2585:2619   */\n      0x4465706f73697420616d6f756e74206d75737420626520677265617465722074\n        /* \"#utility.yul\":2565:2583   */\n      0x44\n      dup3\n      add\n        /* \"#utility.yul\":2558:2620   */\n      mstore\n      shl(0xdc, 0x068616e203)\n        /* \"#utility.yul\":2636:2654   */\n      0x64\n      dup3\n      add\n        /* \"#utility.yul\":2629:2664   */\n      mstore\n        /* \"#utility.yul\":2681:2700   */\n      0x84\n      add\n        /* \"SmartContract.sol\":576:639  require(msg.value > 0, \"Deposit amount must be greater than 0\") */\n      tag_37\n        /* \"#utility.yul\":2305:2706   */\n      jump\n        /* \"SmartContract.sol\":576:639  require(msg.value > 0, \"Deposit amount must be greater than 0\") */\n    tag_54:\n        /* \"SmartContract.sol\":659:669  msg.sender */\n      caller\n        /* \"SmartContract.sol\":650:670  balances[msg.sender] */\n      0x00\n      swap1\n      dup2\n      mstore\n        /* \"SmartContract.sol\":650:658  balances */\n      0x01\n        /* \"SmartContract.sol\":650:670  balances[msg.sender] */\n      0x20\n      mstore\n      0x40\n      dup2\n      keccak256\n        /* \"SmartContract.sol\":650:683  balances[msg.sender] += msg.value */\n      dup1\n      sload\n        /* \"SmartContract.sol\":674:683  msg.value */\n      callvalue\n      swap3\n        /* \"SmartContract.sol\":650:670  balances[msg.sender] */\n      swap1\n        /* \"SmartContract.sol\":650:683  balances[msg.sender] += msg.value */\n      tag_57\n      swap1\n        /* \"SmartContract.sol\":674:683  msg.value */\n      dup5\n      swap1\n        /* \"SmartContract.sol\":650:683  balances[msg.sender] += msg.value */\n      tag_58\n      jump\t// in\n    tag_57:\n      swap1\n      swap2\n      sstore\n      pop\n      pop\n        /* \"SmartContract.sol\":699:729  Deposit(msg.sender, msg.value) */\n      mload(0x40)\n        /* \"SmartContract.sol\":719:728  msg.value */\n      callvalue\n        /* \"#utility.yul\":451:476   */\n      dup2\n      mstore\n        /* \"SmartContract.sol\":707:717  msg.sender */\n      caller\n      swap1\n        /* \"SmartContract.sol\":699:729  Deposit(msg.sender, msg.value) */\n      0xe1fffcc4923d04b559f4d29a8bfc6cda04eb5b0d3c460751c2402c5c5cc9109c\n      swap1\n        /* \"#utility.yul\":439:441   */\n      0x20\n        /* \"#utility.yul\":424:442   */\n      add\n        /* \"SmartContract.sol\":699:729  Deposit(msg.sender, msg.value) */\n      mload(0x40)\n      dup1\n      swap2\n      sub\n      swap1\n      log2\n        /* \"SmartContract.sol\":531:737  function deposit() public payable {... */\n      jump\t// out\n        /* \"#utility.yul\":14:300   */\n    tag_11:\n        /* \"#utility.yul\":73:79   */\n      0x00\n        /* \"#utility.yul\":126:128   */\n      0x20\n        /* \"#utility.yul\":114:123   */\n      dup3\n        /* \"#utility.yul\":105:112   */\n      dup5\n        /* \"#utility.yul\":101:124   */\n      sub\n        /* \"#utility.yul\":97:129   */\n      slt\n        /* \"#utility.yul\":94:146   */\n      iszero\n      tag_63\n      jumpi\n        /* \"#utility.yul\":142:143   */\n      0x00\n        /* \"#utility.yul\":139:140   */\n      dup1\n        /* \"#utility.yul\":132:144   */\n      revert\n        /* \"#utility.yul\":94:146   */\n    tag_63:\n        /* \"#utility.yul\":168:191   */\n      dup2\n      calldataload\n      sub(shl(0xa0, 0x01), 0x01)\n        /* \"#utility.yul\":220:251   */\n      dup2\n      and\n        /* \"#utility.yul\":210:252   */\n      dup2\n      eq\n        /* \"#utility.yul\":200:270   */\n      tag_64\n      jumpi\n        /* \"#utility.yul\":266:267   */\n      0x00\n        /* \"#utility.yul\":263:264   */\n      dup1\n        /* \"#utility.yul\":256:268   */\n      revert\n        /* \"#utility.yul\":200:270   */\n    tag_64:\n        /* \"#utility.yul\":289:294   */\n      swap4\n        /* \"#utility.yul\":14:300   */\n      swap3\n      pop\n      pop\n      pop\n      jump\t// out\n        /* \"#utility.yul\":487:667   */\n    tag_18:\n        /* \"#utility.yul\":546:552   */\n      0x00\n        /* \"#utility.yul\":599:601   */\n      0x20\n        /* \"#utility.yul\":587:596   */\n      dup3\n        /* \"#utility.yul\":578:585   */\n      dup5\n        /* \"#utility.yul\":574:597   */\n      sub\n        /* \"#utility.yul\":570:602   */\n      slt\n        /* \"#utility.yul\":567:619   */\n      iszero\n      tag_67\n      jumpi\n        /* \"#utility.yul\":615:616   */\n      0x00\n        /* \"#utility.yul\":612:613   */\n      dup1\n        /* \"#utility.yul\":605:617   */\n      revert\n        /* \"#utility.yul\":567:619   */\n    tag_67:\n      pop\n        /* \"#utility.yul\":638:661   */\n      calldataload\n      swap2\n        /* \"#utility.yul\":487:667   */\n      swap1\n      pop\n      jump\t// out\n        /* \"#utility.yul\":1638:1765   */\n    tag_60:\n        /* \"#utility.yul\":1699:1709   */\n      0x4e487b71\n        /* \"#utility.yul\":1694:1697   */\n      0xe0\n        /* \"#utility.yul\":1690:1710   */\n      shl\n        /* \"#utility.yul\":1687:1688   */\n      0x00\n        /* \"#utility.yul\":1680:1711   */\n      mstore\n        /* \"#utility.yul\":1730:1734   */\n      0x11\n        /* \"#utility.yul\":1727:1728   */\n      0x04\n        /* \"#utility.yul\":1720:1735   */\n      mstore\n        /* \"#utility.yul\":1754:1758   */\n      0x24\n        /* \"#utility.yul\":1751:1752   */\n      0x00\n        /* \"#utility.yul\":1744:1759   */\n      revert\n        /* \"#utility.yul\":1770:1898   */\n    tag_43:\n        /* \"#utility.yul\":1837:1846   */\n      dup2\n      dup2\n      sub\n        /* \"#utility.yul\":1858:1869   */\n      dup2\n      dup2\n      gt\n        /* \"#utility.yul\":1855:1892   */\n      iszero\n      tag_74\n      jumpi\n        /* \"#utility.yul\":1872:1890   */\n      tag_74\n      tag_60\n      jump\t// in\n    tag_74:\n        /* \"#utility.yul\":1770:1898   */\n      swap3\n      swap2\n      pop\n      pop\n      jump\t// out\n        /* \"#utility.yul\":2711:2836   */\n    tag_58:\n        /* \"#utility.yul\":2776:2785   */\n      dup1\n      dup3\n      add\n        /* \"#utility.yul\":2797:2807   */\n      dup1\n      dup3\n      gt\n        /* \"#utility.yul\":2794:2830   */\n      iszero\n      tag_74\n      jumpi\n        /* \"#utility.yul\":2810:2828   */\n      tag_74\n      tag_60\n      jump\t// in\n\n    auxdata: 0xa2646970667358221220f790ab700e2ed68608e3a95f53ec85e42802bdc59a65186f03310b32a77c3c4b64736f6c63430008130033\n}\n",
				"bytecode": {
					"linkReferences": {},
					"object": "608060405234801561001057600080fd5b50600080546001600160a01b0319163317905561045d806100326000396000f3fe6080604052600436106100555760003560e01c806327e235e31461005a5780632e1a7d4d1461009a5780638b7afe2e146100bc5780638da5cb5b146100d1578063c71daccb14610109578063d0e30db01461012b575b600080fd5b34801561006657600080fd5b5061008761007536600461039c565b60016020526000908152604090205481565b6040519081526020015b60405180910390f35b3480156100a657600080fd5b506100ba6100b53660046103cc565b610133565b005b3480156100c857600080fd5b50610087610279565b3480156100dd57600080fd5b506000546100f1906001600160a01b031681565b6040516001600160a01b039091168152602001610091565b34801561011557600080fd5b5033600090815260016020526040902054610087565b6100ba6102e3565b600081116101995760405162461bcd60e51b815260206004820152602860248201527f5769746864726177616c20616d6f756e74206d75737420626520677265617465604482015267072207468616e20360c41b60648201526084015b60405180910390fd5b336000908152600160205260409020548111156101ef5760405162461bcd60e51b8152602060048201526014602482015273496e73756666696369656e742062616c616e636560601b6044820152606401610190565b336000908152600160205260408120805483929061020e9084906103fb565b9091555050604051339082156108fc029083906000818181858888f19350505050158015610240573d6000803e3d6000fd5b5060405181815233907f7fcf532c15f0a6db0bd6d0e038bea71d30d808c7d98cb3bf7268a95bf5081b659060200160405180910390a250565b600080546001600160a01b031633146102de5760405162461bcd60e51b815260206004820152602160248201527f4f6e6c79206f776e65722063616e2063616c6c20746869732066756e6374696f6044820152603760f91b6064820152608401610190565b504790565b600034116103415760405162461bcd60e51b815260206004820152602560248201527f4465706f73697420616d6f756e74206d75737420626520677265617465722074604482015264068616e20360dc1b6064820152608401610190565b3360009081526001602052604081208054349290610360908490610414565b909155505060405134815233907fe1fffcc4923d04b559f4d29a8bfc6cda04eb5b0d3c460751c2402c5c5cc9109c9060200160405180910390a2565b6000602082840312156103ae57600080fd5b81356001600160a01b03811681146103c557600080fd5b9392505050565b6000602082840312156103de57600080fd5b5035919050565b634e487b7160e01b600052601160045260246000fd5b8181038181111561040e5761040e6103e5565b92915050565b8082018082111561040e5761040e6103e556fea2646970667358221220f790ab700e2ed68608e3a95f53ec85e42802bdc59a65186f03310b32a77c3c4b64736f6c63430008130033",
					"opcodes": "PUSH1 0x80 PUSH1 0x40 MSTORE CALLVALUE DUP1 ISZERO PUSH2 0x10 JUMPI PUSH1 0x0 DUP1 REVERT JUMPDEST POP PUSH1 0x0 DUP1 SLOAD PUSH1 0x1 PUSH1 0x1 PUSH1 0xA0 SHL SUB NOT AND CALLER OR SWAP1 SSTORE PUSH2 0x45D DUP1 PUSH2 0x32 PUSH1 0x0 CODECOPY PUSH1 0x0 RETURN INVALID PUSH1 0x80 PUSH1 0x40 MSTORE PUSH1 0x4 CALLDATASIZE LT PUSH2 0x55 JUMPI PUSH1 0x0 CALLDATALOAD PUSH1 0xE0 SHR DUP1 PUSH4 0x27E235E3 EQ PUSH2 0x5A JUMPI DUP1 PUSH4 0x2E1A7D4D EQ PUSH2 0x9A JUMPI DUP1 PUSH4 0x8B7AFE2E EQ PUSH2 0xBC JUMPI DUP1 PUSH4 0x8DA5CB5B EQ PUSH2 0xD1 JUMPI DUP1 PUSH4 0xC71DACCB EQ PUSH2 0x109 JUMPI DUP1 PUSH4 0xD0E30DB0 EQ PUSH2 0x12B JUMPI JUMPDEST PUSH1 0x0 DUP1 REVERT JUMPDEST CALLVALUE DUP1 ISZERO PUSH2 0x66 JUMPI PUSH1 0x0 DUP1 REVERT JUMPDEST POP PUSH2 0x87 PUSH2 0x75 CALLDATASIZE PUSH1 0x4 PUSH2 0x39C JUMP JUMPDEST PUSH1 0x1 PUSH1 0x20 MSTORE PUSH1 0x0 SWAP1 DUP2 MSTORE PUSH1 0x40 SWAP1 KECCAK256 SLOAD DUP2 JUMP JUMPDEST PUSH1 0x40 MLOAD SWAP1 DUP2 MSTORE PUSH1 0x20 ADD JUMPDEST PUSH1 0x40 MLOAD DUP1 SWAP2 SUB SWAP1 RETURN JUMPDEST CALLVALUE DUP1 ISZERO PUSH2 0xA6 JUMPI PUSH1 0x0 DUP1 REVERT JUMPDEST POP PUSH2 0xBA PUSH2 0xB5 CALLDATASIZE PUSH1 0x4 PUSH2 0x3CC JUMP JUMPDEST PUSH2 0x133 JUMP JUMPDEST STOP JUMPDEST CALLVALUE DUP1 ISZERO PUSH2 0xC8 JUMPI PUSH1 0x0 DUP1 REVERT JUMPDEST POP PUSH2 0x87 PUSH2 0x279 JUMP JUMPDEST CALLVALUE DUP1 ISZERO PUSH2 0xDD JUMPI PUSH1 0x0 DUP1 REVERT JUMPDEST POP PUSH1 0x0 SLOAD PUSH2 0xF1 SWAP1 PUSH1 0x1 PUSH1 0x1 PUSH1 0xA0 SHL SUB AND DUP2 JUMP JUMPDEST PUSH1 0x40 MLOAD PUSH1 0x1 PUSH1 0x1 PUSH1 0xA0 SHL SUB SWAP1 SWAP2 AND DUP2 MSTORE PUSH1 0x20 ADD PUSH2 0x91 JUMP JUMPDEST CALLVALUE DUP1 ISZERO PUSH2 0x115 JUMPI PUSH1 0x0 DUP1 REVERT JUMPDEST POP CALLER PUSH1 0x0 SWAP1 DUP2 MSTORE PUSH1 0x1 PUSH1 0x20 MSTORE PUSH1 0x40 SWAP1 KECCAK256 SLOAD PUSH2 0x87 JUMP JUMPDEST PUSH2 0xBA PUSH2 0x2E3 JUMP JUMPDEST PUSH1 0x0 DUP2 GT PUSH2 0x199 JUMPI PUSH1 0x40 MLOAD PUSH3 0x461BCD PUSH1 0xE5 SHL DUP2 MSTORE PUSH1 0x20 PUSH1 0x4 DUP3 ADD MSTORE PUSH1 0x28 PUSH1 0x24 DUP3 ADD MSTORE PUSH32 0x5769746864726177616C20616D6F756E74206D75737420626520677265617465 PUSH1 0x44 DUP3 ADD MSTORE PUSH8 0x72207468616E203 PUSH1 0xC4 SHL PUSH1 0x64 DUP3 ADD MSTORE PUSH1 0x84 ADD JUMPDEST PUSH1 0x40 MLOAD DUP1 SWAP2 SUB SWAP1 REVERT JUMPDEST CALLER PUSH1 0x0 SWAP1 DUP2 MSTORE PUSH1 0x1 PUSH1 0x20 MSTORE PUSH1 0x40 SWAP1 KECCAK256 SLOAD DUP2 GT ISZERO PUSH2 0x1EF JUMPI PUSH1 0x40 MLOAD PUSH3 0x461BCD PUSH1 0xE5 SHL DUP2 MSTORE PUSH1 0x20 PUSH1 0x4 DUP3 ADD MSTORE PUSH1 0x14 PUSH1 0x24 DUP3 ADD MSTORE PUSH20 0x496E73756666696369656E742062616C616E6365 PUSH1 0x60 SHL PUSH1 0x44 DUP3 ADD MSTORE PUSH1 0x64 ADD PUSH2 0x190 JUMP JUMPDEST CALLER PUSH1 0x0 SWAP1 DUP2 MSTORE PUSH1 0x1 PUSH1 0x20 MSTORE PUSH1 0x40 DUP2 KECCAK256 DUP1 SLOAD DUP4 SWAP3 SWAP1 PUSH2 0x20E SWAP1 DUP5 SWAP1 PUSH2 0x3FB JUMP JUMPDEST SWAP1 SWAP2 SSTORE POP POP PUSH1 0x40 MLOAD CALLER SWAP1 DUP3 ISZERO PUSH2 0x8FC MUL SWAP1 DUP4 SWAP1 PUSH1 0x0 DUP2 DUP2 DUP2 DUP6 DUP9 DUP9 CALL SWAP4 POP POP POP POP ISZERO DUP1 ISZERO PUSH2 0x240 JUMPI RETURNDATASIZE PUSH1 0x0 DUP1 RETURNDATACOPY RETURNDATASIZE PUSH1 0x0 REVERT JUMPDEST POP PUSH1 0x40 MLOAD DUP2 DUP2 MSTORE CALLER SWAP1 PUSH32 0x7FCF532C15F0A6DB0BD6D0E038BEA71D30D808C7D98CB3BF7268A95BF5081B65 SWAP1 PUSH1 0x20 ADD PUSH1 0x40 MLOAD DUP1 SWAP2 SUB SWAP1 LOG2 POP JUMP JUMPDEST PUSH1 0x0 DUP1 SLOAD PUSH1 0x1 PUSH1 0x1 PUSH1 0xA0 SHL SUB AND CALLER EQ PUSH2 0x2DE JUMPI PUSH1 0x40 MLOAD PUSH3 0x461BCD PUSH1 0xE5 SHL DUP2 MSTORE PUSH1 0x20 PUSH1 0x4 DUP3 ADD MSTORE PUSH1 0x21 PUSH1 0x24 DUP3 ADD MSTORE PUSH32 0x4F6E6C79206F776E65722063616E2063616C6C20746869732066756E6374696F PUSH1 0x44 DUP3 ADD MSTORE PUSH1 0x37 PUSH1 0xF9 SHL PUSH1 0x64 DUP3 ADD MSTORE PUSH1 0x84 ADD PUSH2 0x190 JUMP JUMPDEST POP SELFBALANCE SWAP1 JUMP JUMPDEST PUSH1 0x0 CALLVALUE GT PUSH2 0x341 JUMPI PUSH1 0x40 MLOAD PUSH3 0x461BCD PUSH1 0xE5 SHL DUP2 MSTORE PUSH1 0x20 PUSH1 0x4 DUP3 ADD MSTORE PUSH1 0x25 PUSH1 0x24 DUP3 ADD MSTORE PUSH32 0x4465706F73697420616D6F756E74206D75737420626520677265617465722074 PUSH1 0x44 DUP3 ADD MSTORE PUSH5 0x68616E203 PUSH1 0xDC SHL PUSH1 0x64 DUP3 ADD MSTORE PUSH1 0x84 ADD PUSH2 0x190 JUMP JUMPDEST CALLER PUSH1 0x0 SWAP1 DUP2 MSTORE PUSH1 0x1 PUSH1 0x20 MSTORE PUSH1 0x40 DUP2 KECCAK256 DUP1 SLOAD CALLVALUE SWAP3 SWAP1 PUSH2 0x360 SWAP1 DUP5 SWAP1 PUSH2 0x414 JUMP JUMPDEST SWAP1 SWAP2 SSTORE POP POP PUSH1 0x40 MLOAD CALLVALUE DUP2 MSTORE CALLER SWAP1 PUSH32 0xE1FFFCC4923D04B559F4D29A8BFC6CDA04EB5B0D3C460751C2402C5C5CC9109C SWAP1 PUSH1 0x20 ADD PUSH1 0x40 MLOAD DUP1 SWAP2 SUB SWAP1 LOG2 JUMP JUMPDEST PUSH1 0x0 PUSH1 0x20 DUP3 DUP5 SUB SLT ISZERO PUSH2 0x3AE JUMPI PUSH1 0x0 DUP1 REVERT JUMPDEST DUP2 CALLDATALOAD PUSH1 0x1 PUSH1 0x1 PUSH1 0xA0 SHL SUB DUP2 AND DUP2 EQ PUSH2 0x3C5 JUMPI PUSH1 0x0 DUP1 REVERT JUMPDEST SWAP4 SWAP3 POP POP POP JUMP JUMPDEST PUSH1 0x0 PUSH1 0x20 DUP3 DUP5 SUB SLT ISZERO PUSH2 0x3DE JUMPI PUSH1 0x0 DUP1 REVERT JUMPDEST POP CALLDATALOAD SWAP2 SWAP1 POP JUMP JUMPDEST PUSH4 0x4E487B71 PUSH1 0xE0 SHL PUSH1 0x0 MSTORE PUSH1 0x11 PUSH1 0x4 MSTORE PUSH1 0x24 PUSH1 0x0 REVERT JUMPDEST DUP2 DUP2 SUB DUP2 DUP2 GT ISZERO PUSH2 0x40E JUMPI PUSH2 0x40E PUSH2 0x3E5 JUMP JUMPDEST SWAP3 SWAP2 POP POP JUMP JUMPDEST DUP1 DUP3 ADD DUP1 DUP3 GT ISZERO PUSH2 0x40E JUMPI PUSH2 0x40E PUSH2 0x3E5 JUMP INVALID LOG2 PUSH5 0x6970667358 0x22 SLT KECCAK256 0xF7 SWAP1 0xAB PUSH17 0xE2ED68608E3A95F53EC85E42802BDC59A PUSH6 0x186F03310B32 0xA7 PUSH29 0x3C4B64736F6C6343000813003300000000000000000000000000000000 "
				},
				"gasEstimates": {
					"creation": {
						"codeDepositCost": "223400",
						"executionCost": "24498",
						"totalCost": "247898"
					},
					"external": {
						"balances(address)": "2451",
						"checkBalance()": "2415",
						"contractBalance()": "2440",
						"deposit()": "26036",
						"owner()": "2381",
						"withdraw(uint256)": "infinite"
					}
				},
				"methodIdentifiers": {
					"balances(address)": "27e235e3",
					"checkBalance()": "c71daccb",
					"contractBalance()": "8b7afe2e",
					"deposit()": "d0e30db0",
					"owner()": "8da5cb5b",
					"withdraw(uint256)": "2e1a7d4d"
				}
			},
			"storageLayout": {
				"storage": [
					{
						"astId": 3,
						"contract": "SmartContract.sol:SimpleWallet",
						"label": "owner",
						"offset": 0,
						"slot": "0",
						"type": "t_address"
					},
					{
						"astId": 7,
						"contract": "SmartContract.sol:SimpleWallet",
						"label": "balances",
						"offset": 0,
						"slot": "1",
						"type": "t_mapping(t_address,t_uint256)"
					}
				],
				"types": {
					"t_address": {
						"encoding": "inplace",
						"label": "address",
						"numberOfBytes": "20"
					},
					"t_mapping(t_address,t_uint256)": {
						"encoding": "mapping",
						"key": "t_address",
						"label": "mapping(address => uint256)",
						"numberOfBytes": "32",
						"value": "t_uint256"
					},
					"t_uint256": {
						"encoding": "inplace",
						"label": "uint256",
						"numberOfBytes": "32"
					}
				}
			},
			"userdoc": {
				"kind": "user",
				"methods": {},
				"version": 1
			}
		}
	}
}